{
  "_format": "hh-sol-artifact-1",
  "contractName": "MetadventureGen1",
  "sourceName": "assets/contracts/MetadventureGen1.sol",
  "abi": [
    {
      "inputs": [
        {
          "internalType": "string",
          "name": "_name",
          "type": "string"
        },
        {
          "internalType": "string",
          "name": "_symbol",
          "type": "string"
        },
        {
          "internalType": "string",
          "name": "_initBaseURI",
          "type": "string"
        },
        {
          "internalType": "bytes32",
          "name": "_whitelistRoot",
          "type": "bytes32"
        },
        {
          "internalType": "string",
          "name": "_allInitialMetadataEncrypted",
          "type": "string"
        },
        {
          "internalType": "address",
          "name": "_vrfCoordinator",
          "type": "address"
        },
        {
          "internalType": "uint64",
          "name": "_subscriptionId",
          "type": "uint64"
        },
        {
          "internalType": "bytes32",
          "name": "_keyHash",
          "type": "bytes32"
        }
      ],
      "stateMutability": "nonpayable",
      "type": "constructor"
    },
    {
      "inputs": [
        {
          "internalType": "address",
          "name": "have",
          "type": "address"
        },
        {
          "internalType": "address",
          "name": "want",
          "type": "address"
        }
      ],
      "name": "OnlyCoordinatorCanFulfill",
      "type": "error"
    },
    {
      "anonymous": false,
      "inputs": [
        {
          "indexed": true,
          "internalType": "address",
          "name": "owner",
          "type": "address"
        },
        {
          "indexed": true,
          "internalType": "address",
          "name": "approved",
          "type": "address"
        },
        {
          "indexed": true,
          "internalType": "uint256",
          "name": "tokenId",
          "type": "uint256"
        }
      ],
      "name": "Approval",
      "type": "event"
    },
    {
      "anonymous": false,
      "inputs": [
        {
          "indexed": true,
          "internalType": "address",
          "name": "owner",
          "type": "address"
        },
        {
          "indexed": true,
          "internalType": "address",
          "name": "operator",
          "type": "address"
        },
        {
          "indexed": false,
          "internalType": "bool",
          "name": "approved",
          "type": "bool"
        }
      ],
      "name": "ApprovalForAll",
      "type": "event"
    },
    {
      "anonymous": false,
      "inputs": [
        {
          "indexed": true,
          "internalType": "address",
          "name": "previousOwner",
          "type": "address"
        },
        {
          "indexed": true,
          "internalType": "address",
          "name": "newOwner",
          "type": "address"
        }
      ],
      "name": "OwnershipTransferred",
      "type": "event"
    },
    {
      "anonymous": false,
      "inputs": [
        {
          "indexed": true,
          "internalType": "address",
          "name": "from",
          "type": "address"
        },
        {
          "indexed": true,
          "internalType": "address",
          "name": "to",
          "type": "address"
        },
        {
          "indexed": true,
          "internalType": "uint256",
          "name": "tokenId",
          "type": "uint256"
        }
      ],
      "name": "Transfer",
      "type": "event"
    },
    {
      "inputs": [],
      "name": "allInitialMetadataEncrypted",
      "outputs": [
        {
          "internalType": "string",
          "name": "",
          "type": "string"
        }
      ],
      "stateMutability": "view",
      "type": "function"
    },
    {
      "inputs": [],
      "name": "allMetadataEncrypted",
      "outputs": [
        {
          "internalType": "string",
          "name": "",
          "type": "string"
        }
      ],
      "stateMutability": "view",
      "type": "function"
    },
    {
      "inputs": [
        {
          "internalType": "address",
          "name": "to",
          "type": "address"
        },
        {
          "internalType": "uint256",
          "name": "tokenId",
          "type": "uint256"
        }
      ],
      "name": "approve",
      "outputs": [],
      "stateMutability": "nonpayable",
      "type": "function"
    },
    {
      "inputs": [
        {
          "internalType": "address",
          "name": "owner",
          "type": "address"
        }
      ],
      "name": "balanceOf",
      "outputs": [
        {
          "internalType": "uint256",
          "name": "",
          "type": "uint256"
        }
      ],
      "stateMutability": "view",
      "type": "function"
    },
    {
      "inputs": [],
      "name": "basePermanentURI",
      "outputs": [
        {
          "internalType": "string",
          "name": "",
          "type": "string"
        }
      ],
      "stateMutability": "view",
      "type": "function"
    },
    {
      "inputs": [],
      "name": "baseURI",
      "outputs": [
        {
          "internalType": "string",
          "name": "",
          "type": "string"
        }
      ],
      "stateMutability": "view",
      "type": "function"
    },
    {
      "inputs": [],
      "name": "cost",
      "outputs": [
        {
          "internalType": "uint256",
          "name": "",
          "type": "uint256"
        }
      ],
      "stateMutability": "view",
      "type": "function"
    },
    {
      "inputs": [],
      "name": "defineTokenGap",
      "outputs": [
        {
          "internalType": "uint256",
          "name": "_requestId",
          "type": "uint256"
        }
      ],
      "stateMutability": "nonpayable",
      "type": "function"
    },
    {
      "inputs": [
        {
          "internalType": "uint256",
          "name": "tokenId",
          "type": "uint256"
        }
      ],
      "name": "getApproved",
      "outputs": [
        {
          "internalType": "address",
          "name": "",
          "type": "address"
        }
      ],
      "stateMutability": "view",
      "type": "function"
    },
    {
      "inputs": [
        {
          "internalType": "address",
          "name": "owner",
          "type": "address"
        },
        {
          "internalType": "address",
          "name": "operator",
          "type": "address"
        }
      ],
      "name": "isApprovedForAll",
      "outputs": [
        {
          "internalType": "bool",
          "name": "",
          "type": "bool"
        }
      ],
      "stateMutability": "view",
      "type": "function"
    },
    {
      "inputs": [
        {
          "internalType": "bytes32[]",
          "name": "_proof",
          "type": "bytes32[]"
        },
        {
          "internalType": "bytes32",
          "name": "_leaf",
          "type": "bytes32"
        }
      ],
      "name": "isWhitelisted",
      "outputs": [
        {
          "internalType": "bool",
          "name": "",
          "type": "bool"
        }
      ],
      "stateMutability": "view",
      "type": "function"
    },
    {
      "inputs": [],
      "name": "maxMintAmount",
      "outputs": [
        {
          "internalType": "uint256",
          "name": "",
          "type": "uint256"
        }
      ],
      "stateMutability": "view",
      "type": "function"
    },
    {
      "inputs": [],
      "name": "maxSupply",
      "outputs": [
        {
          "internalType": "uint256",
          "name": "",
          "type": "uint256"
        }
      ],
      "stateMutability": "view",
      "type": "function"
    },
    {
      "inputs": [
        {
          "internalType": "address",
          "name": "_to",
          "type": "address"
        },
        {
          "internalType": "uint256",
          "name": "_mintAmount",
          "type": "uint256"
        }
      ],
      "name": "mint",
      "outputs": [],
      "stateMutability": "payable",
      "type": "function"
    },
    {
      "inputs": [],
      "name": "name",
      "outputs": [
        {
          "internalType": "string",
          "name": "",
          "type": "string"
        }
      ],
      "stateMutability": "view",
      "type": "function"
    },
    {
      "inputs": [],
      "name": "owner",
      "outputs": [
        {
          "internalType": "address",
          "name": "",
          "type": "address"
        }
      ],
      "stateMutability": "view",
      "type": "function"
    },
    {
      "inputs": [
        {
          "internalType": "address",
          "name": "_to",
          "type": "address"
        },
        {
          "internalType": "uint256",
          "name": "_mintAmount",
          "type": "uint256"
        }
      ],
      "name": "ownerMint",
      "outputs": [],
      "stateMutability": "nonpayable",
      "type": "function"
    },
    {
      "inputs": [
        {
          "internalType": "uint256",
          "name": "tokenId",
          "type": "uint256"
        }
      ],
      "name": "ownerOf",
      "outputs": [
        {
          "internalType": "address",
          "name": "",
          "type": "address"
        }
      ],
      "stateMutability": "view",
      "type": "function"
    },
    {
      "inputs": [
        {
          "internalType": "bool",
          "name": "_state",
          "type": "bool"
        }
      ],
      "name": "pause",
      "outputs": [],
      "stateMutability": "nonpayable",
      "type": "function"
    },
    {
      "inputs": [],
      "name": "paused",
      "outputs": [
        {
          "internalType": "bool",
          "name": "",
          "type": "bool"
        }
      ],
      "stateMutability": "view",
      "type": "function"
    },
    {
      "inputs": [
        {
          "internalType": "uint256",
          "name": "requestId",
          "type": "uint256"
        },
        {
          "internalType": "uint256[]",
          "name": "randomWords",
          "type": "uint256[]"
        }
      ],
      "name": "rawFulfillRandomWords",
      "outputs": [],
      "stateMutability": "nonpayable",
      "type": "function"
    },
    {
      "inputs": [],
      "name": "releaseDate",
      "outputs": [
        {
          "internalType": "uint256",
          "name": "",
          "type": "uint256"
        }
      ],
      "stateMutability": "view",
      "type": "function"
    },
    {
      "inputs": [],
      "name": "renounceOwnership",
      "outputs": [],
      "stateMutability": "nonpayable",
      "type": "function"
    },
    {
      "inputs": [],
      "name": "requestId",
      "outputs": [
        {
          "internalType": "uint256",
          "name": "",
          "type": "uint256"
        }
      ],
      "stateMutability": "view",
      "type": "function"
    },
    {
      "inputs": [
        {
          "internalType": "uint256",
          "name": "_tokenId",
          "type": "uint256"
        },
        {
          "internalType": "uint256",
          "name": "_salePrice",
          "type": "uint256"
        }
      ],
      "name": "royaltyInfo",
      "outputs": [
        {
          "internalType": "address",
          "name": "",
          "type": "address"
        },
        {
          "internalType": "uint256",
          "name": "",
          "type": "uint256"
        }
      ],
      "stateMutability": "view",
      "type": "function"
    },
    {
      "inputs": [
        {
          "internalType": "address",
          "name": "from",
          "type": "address"
        },
        {
          "internalType": "address",
          "name": "to",
          "type": "address"
        },
        {
          "internalType": "uint256",
          "name": "tokenId",
          "type": "uint256"
        }
      ],
      "name": "safeTransferFrom",
      "outputs": [],
      "stateMutability": "nonpayable",
      "type": "function"
    },
    {
      "inputs": [
        {
          "internalType": "address",
          "name": "from",
          "type": "address"
        },
        {
          "internalType": "address",
          "name": "to",
          "type": "address"
        },
        {
          "internalType": "uint256",
          "name": "tokenId",
          "type": "uint256"
        },
        {
          "internalType": "bytes",
          "name": "data",
          "type": "bytes"
        }
      ],
      "name": "safeTransferFrom",
      "outputs": [],
      "stateMutability": "nonpayable",
      "type": "function"
    },
    {
      "inputs": [
        {
          "internalType": "string",
          "name": "_newAllMetadataEncrypted",
          "type": "string"
        }
      ],
      "name": "setAllMetadataEncrypted",
      "outputs": [],
      "stateMutability": "nonpayable",
      "type": "function"
    },
    {
      "inputs": [
        {
          "internalType": "address",
          "name": "operator",
          "type": "address"
        },
        {
          "internalType": "bool",
          "name": "approved",
          "type": "bool"
        }
      ],
      "name": "setApprovalForAll",
      "outputs": [],
      "stateMutability": "nonpayable",
      "type": "function"
    },
    {
      "inputs": [
        {
          "internalType": "string",
          "name": "_newBaseURI",
          "type": "string"
        }
      ],
      "name": "setBaseURI",
      "outputs": [],
      "stateMutability": "nonpayable",
      "type": "function"
    },
    {
      "inputs": [
        {
          "internalType": "uint256",
          "name": "_newCost",
          "type": "uint256"
        }
      ],
      "name": "setCost",
      "outputs": [],
      "stateMutability": "nonpayable",
      "type": "function"
    },
    {
      "inputs": [
        {
          "internalType": "uint8",
          "name": "_newMaxMintAmount",
          "type": "uint8"
        }
      ],
      "name": "setMaxMintAmount",
      "outputs": [],
      "stateMutability": "nonpayable",
      "type": "function"
    },
    {
      "inputs": [
        {
          "internalType": "string",
          "name": "_newPermanentBaseUri",
          "type": "string"
        }
      ],
      "name": "setPermanentBaseURI",
      "outputs": [],
      "stateMutability": "nonpayable",
      "type": "function"
    },
    {
      "inputs": [
        {
          "internalType": "uint256",
          "name": "_newReleaseDate",
          "type": "uint256"
        }
      ],
      "name": "setReleaseDate",
      "outputs": [],
      "stateMutability": "nonpayable",
      "type": "function"
    },
    {
      "inputs": [
        {
          "internalType": "address",
          "name": "receiver",
          "type": "address"
        },
        {
          "internalType": "uint96",
          "name": "feeNumerator",
          "type": "uint96"
        }
      ],
      "name": "setRoyalty",
      "outputs": [],
      "stateMutability": "nonpayable",
      "type": "function"
    },
    {
      "inputs": [
        {
          "internalType": "uint64",
          "name": "_subscriptionId",
          "type": "uint64"
        }
      ],
      "name": "setSubscriptionId",
      "outputs": [],
      "stateMutability": "nonpayable",
      "type": "function"
    },
    {
      "inputs": [
        {
          "internalType": "uint256",
          "name": "_newWhitelistReleaseDate",
          "type": "uint256"
        }
      ],
      "name": "setWhitelistReleaseDate",
      "outputs": [],
      "stateMutability": "nonpayable",
      "type": "function"
    },
    {
      "inputs": [
        {
          "internalType": "uint256",
          "name": "_newCost",
          "type": "uint256"
        }
      ],
      "name": "setWhitelistedCost",
      "outputs": [],
      "stateMutability": "nonpayable",
      "type": "function"
    },
    {
      "inputs": [
        {
          "internalType": "bytes4",
          "name": "interfaceId",
          "type": "bytes4"
        }
      ],
      "name": "supportsInterface",
      "outputs": [
        {
          "internalType": "bool",
          "name": "",
          "type": "bool"
        }
      ],
      "stateMutability": "view",
      "type": "function"
    },
    {
      "inputs": [],
      "name": "symbol",
      "outputs": [
        {
          "internalType": "string",
          "name": "",
          "type": "string"
        }
      ],
      "stateMutability": "view",
      "type": "function"
    },
    {
      "inputs": [
        {
          "internalType": "uint256",
          "name": "index",
          "type": "uint256"
        }
      ],
      "name": "tokenByIndex",
      "outputs": [
        {
          "internalType": "uint256",
          "name": "",
          "type": "uint256"
        }
      ],
      "stateMutability": "view",
      "type": "function"
    },
    {
      "inputs": [],
      "name": "tokenGap",
      "outputs": [
        {
          "internalType": "uint256",
          "name": "",
          "type": "uint256"
        }
      ],
      "stateMutability": "view",
      "type": "function"
    },
    {
      "inputs": [
        {
          "internalType": "address",
          "name": "owner",
          "type": "address"
        },
        {
          "internalType": "uint256",
          "name": "index",
          "type": "uint256"
        }
      ],
      "name": "tokenOfOwnerByIndex",
      "outputs": [
        {
          "internalType": "uint256",
          "name": "",
          "type": "uint256"
        }
      ],
      "stateMutability": "view",
      "type": "function"
    },
    {
      "inputs": [
        {
          "internalType": "uint256",
          "name": "tokenId",
          "type": "uint256"
        }
      ],
      "name": "tokenURI",
      "outputs": [
        {
          "internalType": "string",
          "name": "",
          "type": "string"
        }
      ],
      "stateMutability": "view",
      "type": "function"
    },
    {
      "inputs": [],
      "name": "totalSupply",
      "outputs": [
        {
          "internalType": "uint256",
          "name": "",
          "type": "uint256"
        }
      ],
      "stateMutability": "view",
      "type": "function"
    },
    {
      "inputs": [
        {
          "internalType": "address",
          "name": "from",
          "type": "address"
        },
        {
          "internalType": "address",
          "name": "to",
          "type": "address"
        },
        {
          "internalType": "uint256",
          "name": "tokenId",
          "type": "uint256"
        }
      ],
      "name": "transferFrom",
      "outputs": [],
      "stateMutability": "nonpayable",
      "type": "function"
    },
    {
      "inputs": [
        {
          "internalType": "address",
          "name": "newOwner",
          "type": "address"
        }
      ],
      "name": "transferOwnership",
      "outputs": [],
      "stateMutability": "nonpayable",
      "type": "function"
    },
    {
      "inputs": [
        {
          "internalType": "address",
          "name": "_owner",
          "type": "address"
        }
      ],
      "name": "walletOfOwner",
      "outputs": [
        {
          "internalType": "uint256[]",
          "name": "",
          "type": "uint256[]"
        }
      ],
      "stateMutability": "view",
      "type": "function"
    },
    {
      "inputs": [],
      "name": "whitelistReleaseDate",
      "outputs": [
        {
          "internalType": "uint256",
          "name": "",
          "type": "uint256"
        }
      ],
      "stateMutability": "view",
      "type": "function"
    },
    {
      "inputs": [],
      "name": "whitelistRoot",
      "outputs": [
        {
          "internalType": "bytes32",
          "name": "",
          "type": "bytes32"
        }
      ],
      "stateMutability": "view",
      "type": "function"
    },
    {
      "inputs": [],
      "name": "whitelistedCost",
      "outputs": [
        {
          "internalType": "uint256",
          "name": "",
          "type": "uint256"
        }
      ],
      "stateMutability": "view",
      "type": "function"
    },
    {
      "inputs": [
        {
          "internalType": "bytes32[]",
          "name": "_proof",
          "type": "bytes32[]"
        },
        {
          "internalType": "bytes32",
          "name": "_leaf",
          "type": "bytes32"
        },
        {
          "internalType": "uint256",
          "name": "_mintAmount",
          "type": "uint256"
        }
      ],
      "name": "whitelistedMint",
      "outputs": [],
      "stateMutability": "payable",
      "type": "function"
    },
    {
      "inputs": [],
      "name": "withdraw",
      "outputs": [],
      "stateMutability": "payable",
      "type": "function"
    }
  ],
  "bytecode": "0x60a0604052668e1bc9bf040000600e5566470de4df820000600f55611f4060105560046011556000601260006101000a81548160ff02191690831515021790555063635d783060135563635d3ff0601455604051806020016040528060008152506016908162000070919062000820565b50604051806020016040528060008152506017908162000091919062000820565b506040518060200160405280600081525060189081620000b2919062000820565b506000601a55348015620000c557600080fd5b50604051620069f6380380620069f68339818101604052810190620000eb919062000b50565b8288888160029081620000ff919062000820565b50806003908162000111919062000820565b5050508073ffffffffffffffffffffffffffffffffffffffff1660808173ffffffffffffffffffffffffffffffffffffffff168152505050620001696200015d6200022660201b60201c565b6200022e60201b60201c565b6200017a86620002f460201b60201c565b6200018e336113886200031960201b60201c565b846019819055508360159081620001a6919062000820565b5082600d60006101000a81548173ffffffffffffffffffffffffffffffffffffffff021916908373ffffffffffffffffffffffffffffffffffffffff16021790555081601c60006101000a81548167ffffffffffffffff021916908367ffffffffffffffff16021790555080601d81905550505050505050505062000e22565b600033905090565b6000600c60009054906101000a900473ffffffffffffffffffffffffffffffffffffffff16905081600c60006101000a81548173ffffffffffffffffffffffffffffffffffffffff021916908373ffffffffffffffffffffffffffffffffffffffff1602179055508173ffffffffffffffffffffffffffffffffffffffff168173ffffffffffffffffffffffffffffffffffffffff167f8be0079c531659141344cd1fd0a4f28419497f9722a3daafe3b4186f6b6457e060405160405180910390a35050565b620003046200033f60201b60201c565b806017908162000315919062000820565b5050565b620003296200033f60201b60201c565b6200033b8282620003d060201b60201c565b5050565b6200034f6200022660201b60201c565b73ffffffffffffffffffffffffffffffffffffffff16620003756200057260201b60201c565b73ffffffffffffffffffffffffffffffffffffffff1614620003ce576040517f08c379a0000000000000000000000000000000000000000000000000000000008152600401620003c59062000cf6565b60405180910390fd5b565b620003e06200059c60201b60201c565b6bffffffffffffffffffffffff16816bffffffffffffffffffffffff16111562000441576040517f08c379a0000000000000000000000000000000000000000000000000000000008152600401620004389062000d8e565b60405180910390fd5b600073ffffffffffffffffffffffffffffffffffffffff168273ffffffffffffffffffffffffffffffffffffffff1603620004b3576040517f08c379a0000000000000000000000000000000000000000000000000000000008152600401620004aa9062000e00565b60405180910390fd5b60405180604001604052808373ffffffffffffffffffffffffffffffffffffffff168152602001826bffffffffffffffffffffffff168152506000808201518160000160006101000a81548173ffffffffffffffffffffffffffffffffffffffff021916908373ffffffffffffffffffffffffffffffffffffffff16021790555060208201518160000160146101000a8154816bffffffffffffffffffffffff02191690836bffffffffffffffffffffffff1602179055509050505050565b6000600c60009054906101000a900473ffffffffffffffffffffffffffffffffffffffff16905090565b6000612710905090565b600081519050919050565b7f4e487b7100000000000000000000000000000000000000000000000000000000600052604160045260246000fd5b7f4e487b7100000000000000000000000000000000000000000000000000000000600052602260045260246000fd5b600060028204905060018216806200062857607f821691505b6020821081036200063e576200063d620005e0565b5b50919050565b60008190508160005260206000209050919050565b60006020601f8301049050919050565b600082821b905092915050565b600060088302620006a87fffffffffffffffffffffffffffffffffffffffffffffffffffffffffffffffff8262000669565b620006b4868362000669565b95508019841693508086168417925050509392505050565b6000819050919050565b6000819050919050565b600062000701620006fb620006f584620006cc565b620006d6565b620006cc565b9050919050565b6000819050919050565b6200071d83620006e0565b620007356200072c8262000708565b84845462000676565b825550505050565b600090565b6200074c6200073d565b6200075981848462000712565b505050565b5b8181101562000781576200077560008262000742565b6001810190506200075f565b5050565b601f821115620007d0576200079a8162000644565b620007a58462000659565b81016020851015620007b5578190505b620007cd620007c48562000659565b8301826200075e565b50505b505050565b600082821c905092915050565b6000620007f560001984600802620007d5565b1980831691505092915050565b6000620008108383620007e2565b9150826002028217905092915050565b6200082b82620005a6565b67ffffffffffffffff811115620008475762000846620005b1565b5b6200085382546200060f565b6200086082828562000785565b600060209050601f83116001811462000898576000841562000883578287015190505b6200088f858262000802565b865550620008ff565b601f198416620008a88662000644565b60005b82811015620008d257848901518255600182019150602085019450602081019050620008ab565b86831015620008f25784890151620008ee601f891682620007e2565b8355505b6001600288020188555050505b505050505050565b6000604051905090565b600080fd5b600080fd5b600080fd5b600080fd5b6000601f19601f8301169050919050565b620009418262000925565b810181811067ffffffffffffffff82111715620009635762000962620005b1565b5b80604052505050565b60006200097862000907565b905062000986828262000936565b919050565b600067ffffffffffffffff821115620009a957620009a8620005b1565b5b620009b48262000925565b9050602081019050919050565b60005b83811015620009e1578082015181840152602081019050620009c4565b60008484015250505050565b600062000a04620009fe846200098b565b6200096c565b90508281526020810184848401111562000a235762000a2262000920565b5b62000a30848285620009c1565b509392505050565b600082601f83011262000a505762000a4f6200091b565b5b815162000a62848260208601620009ed565b91505092915050565b6000819050919050565b62000a808162000a6b565b811462000a8c57600080fd5b50565b60008151905062000aa08162000a75565b92915050565b600073ffffffffffffffffffffffffffffffffffffffff82169050919050565b600062000ad38262000aa6565b9050919050565b62000ae58162000ac6565b811462000af157600080fd5b50565b60008151905062000b058162000ada565b92915050565b600067ffffffffffffffff82169050919050565b62000b2a8162000b0b565b811462000b3657600080fd5b50565b60008151905062000b4a8162000b1f565b92915050565b600080600080600080600080610100898b03121562000b745762000b7362000911565b5b600089015167ffffffffffffffff81111562000b955762000b9462000916565b5b62000ba38b828c0162000a38565b985050602089015167ffffffffffffffff81111562000bc75762000bc662000916565b5b62000bd58b828c0162000a38565b975050604089015167ffffffffffffffff81111562000bf95762000bf862000916565b5b62000c078b828c0162000a38565b965050606062000c1a8b828c0162000a8f565b955050608089015167ffffffffffffffff81111562000c3e5762000c3d62000916565b5b62000c4c8b828c0162000a38565b94505060a062000c5f8b828c0162000af4565b93505060c062000c728b828c0162000b39565b92505060e062000c858b828c0162000a8f565b9150509295985092959890939650565b600082825260208201905092915050565b7f4f776e61626c653a2063616c6c6572206973206e6f7420746865206f776e6572600082015250565b600062000cde60208362000c95565b915062000ceb8262000ca6565b602082019050919050565b6000602082019050818103600083015262000d118162000ccf565b9050919050565b7f455243323938313a20726f79616c7479206665652077696c6c2065786365656460008201527f2073616c65507269636500000000000000000000000000000000000000000000602082015250565b600062000d76602a8362000c95565b915062000d838262000d18565b604082019050919050565b6000602082019050818103600083015262000da98162000d67565b9050919050565b7f455243323938313a20696e76616c696420726563656976657200000000000000600082015250565b600062000de860198362000c95565b915062000df58262000db0565b602082019050919050565b6000602082019050818103600083015262000e1b8162000dd9565b9050919050565b608051615bb162000e45600039600081816111bf01526112130152615bb16000f3fe6080604052600436106103195760003560e01c806347aea9dd116101ab5780638da5cb5b116100f7578063c87b56dd11610095578063ea7b4f771161006f578063ea7b4f7714610bad578063ee8cc74014610bd6578063f2fde38b14610c01578063fd46d78714610c2a57610319565b8063c87b56dd14610b08578063d5abeb0114610b45578063e985e9c514610b7057610319565b8063a22cb465116100d1578063a22cb46514610a60578063b88d4fde14610a89578063b9e3e2db14610ab2578063bf6db8bc14610add57610319565b80638da5cb5b146109e15780638f2fc60b14610a0c57806395d89b4114610a3557610319565b80636352211e116101645780637125c8591161013e5780637125c85914610937578063715018a6146109625780637397727a1461097957806376837b5f146109b657610319565b80636352211e146108925780636c0360eb146108cf57806370a08231146108fa57610319565b806347aea9dd14610782578063484b973c146107ad57806349094948146107d65780634f6ccce71461080157806355f804b31461083e5780635c975abb1461086757610319565b8063239c70ae1161026a57806336c5ae881161022357806340c10f19116101fd57806340c10f19146106d757806342842e0e146106f3578063438b63001461071c57806344a0d68a1461075957610319565b806336c5ae8814610679578063386bfc98146106a25780633ccfd60b146106cd57610319565b8063239c70ae1461055857806323b872dd146105835780632a55205a146105ac5780632e485394146105ea5780632f745c591461061357806330e406b11461065057610319565b80631352faec116102d75780631bd4b7f0116102b15780631bd4b7f0146104bf5780631cad77f8146104ea5780631e847cf8146105135780631fe543e31461052f57610319565b80631352faec1461044057806313faede61461046957806318160ddd1461049457610319565b80626d6cae1461031e57806301ffc9a71461034957806302329a291461038657806306fdde03146103af578063081812fc146103da578063095ea7b314610417575b600080fd5b34801561032a57600080fd5b50610333610c53565b60405161034091906138ec565b60405180910390f35b34801561035557600080fd5b50610370600480360381019061036b9190613973565b610c59565b60405161037d91906139bb565b60405180910390f35b34801561039257600080fd5b506103ad60048036038101906103a89190613a02565b610c6b565b005b3480156103bb57600080fd5b506103c4610c90565b6040516103d19190613abf565b60405180910390f35b3480156103e657600080fd5b5061040160048036038101906103fc9190613b0d565b610d22565b60405161040e9190613b7b565b60405180910390f35b34801561042357600080fd5b5061043e60048036038101906104399190613bc2565b610d68565b005b34801561044c57600080fd5b5061046760048036038101906104629190613b0d565b610e7f565b005b34801561047557600080fd5b5061047e610e91565b60405161048b91906138ec565b60405180910390f35b3480156104a057600080fd5b506104a9610e97565b6040516104b691906138ec565b60405180910390f35b3480156104cb57600080fd5b506104d4610ea4565b6040516104e191906138ec565b60405180910390f35b3480156104f657600080fd5b50610511600480360381019061050c9190613d37565b610eaa565b005b61052d60048036038101906105289190613e7e565b610f52565b005b34801561053b57600080fd5b5061055660048036038101906105519190613fb0565b6111bd565b005b34801561056457600080fd5b5061056d61127d565b60405161057a91906138ec565b60405180910390f35b34801561058f57600080fd5b506105aa60048036038101906105a5919061400c565b611283565b005b3480156105b857600080fd5b506105d360048036038101906105ce919061405f565b6112e3565b6040516105e192919061409f565b60405180910390f35b3480156105f657600080fd5b50610611600480360381019061060c9190613d37565b6114cd565b005b34801561061f57600080fd5b5061063a60048036038101906106359190613bc2565b6114e8565b60405161064791906138ec565b60405180910390f35b34801561065c57600080fd5b5061067760048036038101906106729190613b0d565b61158d565b005b34801561068557600080fd5b506106a0600480360381019061069b9190613b0d565b61159f565b005b3480156106ae57600080fd5b506106b76115b1565b6040516106c491906140d7565b60405180910390f35b6106d56115b7565b005b6106f160048036038101906106ec9190613bc2565b6115ff565b005b3480156106ff57600080fd5b5061071a6004803603810190610715919061400c565b6117ca565b005b34801561072857600080fd5b50610743600480360381019061073e91906140f2565b6117ea565b60405161075091906141dd565b60405180910390f35b34801561076557600080fd5b50610780600480360381019061077b9190613b0d565b611898565b005b34801561078e57600080fd5b506107976118aa565b6040516107a49190613abf565b60405180910390f35b3480156107b957600080fd5b506107d460048036038101906107cf9190613bc2565b611938565b005b3480156107e257600080fd5b506107eb6119f3565b6040516107f891906138ec565b60405180910390f35b34801561080d57600080fd5b5061082860048036038101906108239190613b0d565b6119f9565b60405161083591906138ec565b60405180910390f35b34801561084a57600080fd5b5061086560048036038101906108609190613d37565b611a6a565b005b34801561087357600080fd5b5061087c611a85565b60405161088991906139bb565b60405180910390f35b34801561089e57600080fd5b506108b960048036038101906108b49190613b0d565b611a98565b6040516108c69190613b7b565b60405180910390f35b3480156108db57600080fd5b506108e4611b49565b6040516108f19190613abf565b60405180910390f35b34801561090657600080fd5b50610921600480360381019061091c91906140f2565b611bd7565b60405161092e91906138ec565b60405180910390f35b34801561094357600080fd5b5061094c611c8e565b6040516109599190613abf565b60405180910390f35b34801561096e57600080fd5b50610977611d1c565b005b34801561098557600080fd5b506109a0600480360381019061099b91906141ff565b611d30565b6040516109ad91906139bb565b60405180910390f35b3480156109c257600080fd5b506109cb611d47565b6040516109d891906138ec565b60405180910390f35b3480156109ed57600080fd5b506109f6611e5e565b604051610a039190613b7b565b60405180910390f35b348015610a1857600080fd5b50610a336004803603810190610a2e919061429f565b611e88565b005b348015610a4157600080fd5b50610a4a611e9e565b604051610a579190613abf565b60405180910390f35b348015610a6c57600080fd5b50610a876004803603810190610a8291906142df565b611f30565b005b348015610a9557600080fd5b50610ab06004803603810190610aab91906143c0565b611f46565b005b348015610abe57600080fd5b50610ac7611fa8565b604051610ad491906138ec565b60405180910390f35b348015610ae957600080fd5b50610af2611fae565b604051610aff9190613abf565b60405180910390f35b348015610b1457600080fd5b50610b2f6004803603810190610b2a9190613b0d565b61203c565b604051610b3c9190613abf565b60405180910390f35b348015610b5157600080fd5b50610b5a6120e3565b604051610b6791906138ec565b60405180910390f35b348015610b7c57600080fd5b50610b976004803603810190610b929190614443565b6120e9565b604051610ba491906139bb565b60405180910390f35b348015610bb957600080fd5b50610bd46004803603810190610bcf91906144c3565b61217d565b005b348015610be257600080fd5b50610beb6121b1565b604051610bf891906138ec565b60405180910390f35b348015610c0d57600080fd5b50610c286004803603810190610c2391906140f2565b6121b7565b005b348015610c3657600080fd5b50610c516004803603810190610c4c9190614529565b61223a565b005b601b5481565b6000610c648261224f565b9050919050565b610c73612261565b80601260006101000a81548160ff02191690831515021790555050565b606060028054610c9f90614585565b80601f0160208091040260200160405190810160405280929190818152602001828054610ccb90614585565b8015610d185780601f10610ced57610100808354040283529160200191610d18565b820191906000526020600020905b815481529060010190602001808311610cfb57829003601f168201915b5050505050905090565b6000610d2d826122df565b6006600083815260200190815260200160002060009054906101000a900473ffffffffffffffffffffffffffffffffffffffff169050919050565b6000610d7382611a98565b90508073ffffffffffffffffffffffffffffffffffffffff168373ffffffffffffffffffffffffffffffffffffffff1603610de3576040517f08c379a0000000000000000000000000000000000000000000000000000000008152600401610dda90614628565b60405180910390fd5b8073ffffffffffffffffffffffffffffffffffffffff16610e0261232a565b73ffffffffffffffffffffffffffffffffffffffff161480610e315750610e3081610e2b61232a565b6120e9565b5b610e70576040517f08c379a0000000000000000000000000000000000000000000000000000000008152600401610e67906146ba565b60405180910390fd5b610e7a8383612332565b505050565b610e87612261565b8060138190555050565b600e5481565b6000600a80549050905090565b600f5481565b610eb2612261565b604051602001610ec19061470b565b604051602081830303815290604052805190602001206016604051602001610ee991906147b8565b6040516020818303038152906040528051906020012014610f3f576040517f08c379a0000000000000000000000000000000000000000000000000000000008152600401610f369061481b565b60405180910390fd5b8060169081610f4e91906149d2565b5050565b601260009054906101000a900460ff1615610fa2576040517f08c379a0000000000000000000000000000000000000000000000000000000008152600401610f9990614af0565b60405180910390fd5b6000610fae8484611d30565b90506000610fba610e97565b905081610ffc576040517f08c379a0000000000000000000000000000000000000000000000000000000008152600401610ff390614b5c565b60405180910390fd5b426014541115611041576040517f08c379a000000000000000000000000000000000000000000000000000000000815260040161103890614bc8565b60405180910390fd5b60105483826110509190614c17565b1115611091576040517f08c379a000000000000000000000000000000000000000000000000000000000815260040161108890614c97565b60405180910390fd5b6011548361109e33611bd7565b6110a89190614c17565b11156110e9576040517f08c379a00000000000000000000000000000000000000000000000000000000081526004016110e090614d03565b60405180910390fd5b6000806110f533611bd7565b111561111057600e54846111099190614d23565b905061113a565b600e546001856111209190614d65565b61112a9190614d23565b600f546111379190614c17565b90505b8034101561117d576040517f08c379a000000000000000000000000000000000000000000000000000000000815260040161117490614de5565b60405180910390fd5b6000600190505b8481116111b4576111a13360018561119c9190614c17565b6123eb565b80806111ac90614e05565b915050611184565b50505050505050565b7f000000000000000000000000000000000000000000000000000000000000000073ffffffffffffffffffffffffffffffffffffffff163373ffffffffffffffffffffffffffffffffffffffff161461126f57337f00000000000000000000000000000000000000000000000000000000000000006040517f1cf993f4000000000000000000000000000000000000000000000000000000008152600401611266929190614e4d565b60405180910390fd5b6112798282612409565b5050565b60115481565b61129461128e61232a565b8261244f565b6112d3576040517f08c379a00000000000000000000000000000000000000000000000000000000081526004016112ca90614ee8565b60405180910390fd5b6112de8383836124e4565b505050565b6000806000600160008681526020019081526020016000206040518060400160405290816000820160009054906101000a900473ffffffffffffffffffffffffffffffffffffffff1673ffffffffffffffffffffffffffffffffffffffff1673ffffffffffffffffffffffffffffffffffffffff1681526020016000820160149054906101000a90046bffffffffffffffffffffffff166bffffffffffffffffffffffff166bffffffffffffffffffffffff16815250509050600073ffffffffffffffffffffffffffffffffffffffff16816000015173ffffffffffffffffffffffffffffffffffffffff16036114785760006040518060400160405290816000820160009054906101000a900473ffffffffffffffffffffffffffffffffffffffff1673ffffffffffffffffffffffffffffffffffffffff1673ffffffffffffffffffffffffffffffffffffffff1681526020016000820160149054906101000a90046bffffffffffffffffffffffff166bffffffffffffffffffffffff166bffffffffffffffffffffffff168152505090505b600061148261274a565b6bffffffffffffffffffffffff1682602001516bffffffffffffffffffffffff16866114ae9190614d23565b6114b89190614f37565b90508160000151819350935050509250929050565b6114d5612261565b80601790816114e491906149d2565b5050565b60006114f383611bd7565b8210611534576040517f08c379a000000000000000000000000000000000000000000000000000000000815260040161152b90614fda565b60405180910390fd5b600860008473ffffffffffffffffffffffffffffffffffffffff1673ffffffffffffffffffffffffffffffffffffffff168152602001908152602001600020600083815260200190815260200160002054905092915050565b611595612261565b8060148190555050565b6115a7612261565b80600f8190555050565b60195481565b6115bf612261565b3373ffffffffffffffffffffffffffffffffffffffff166108fc479081150290604051600060405180830381858888f193505050506115fd57600080fd5b565b6000611609610e97565b9050426013541115611650576040517f08c379a000000000000000000000000000000000000000000000000000000000815260040161164790615046565b60405180910390fd5b601260009054906101000a900460ff16156116a0576040517f08c379a000000000000000000000000000000000000000000000000000000000815260040161169790614af0565b60405180910390fd5b60105482826116af9190614c17565b11156116f0576040517f08c379a00000000000000000000000000000000000000000000000000000000081526004016116e790614c97565b60405180910390fd5b601154826116fd33611bd7565b6117079190614c17565b1115611748576040517f08c379a000000000000000000000000000000000000000000000000000000000815260040161173f90614d03565b60405180910390fd5b600e5434101561178d576040517f08c379a000000000000000000000000000000000000000000000000000000000815260040161178490614de5565b60405180910390fd5b6000600190505b8281116117c4576117b1846001846117ac9190614c17565b6123eb565b80806117bc90614e05565b915050611794565b50505050565b6117e583838360405180602001604052806000815250611f46565b505050565b606060006117f783611bd7565b905060008167ffffffffffffffff81111561181557611814613c0c565b5b6040519080825280602002602001820160405280156118435781602001602082028036833780820191505090505b50905060005b8281101561188d5761185b85826114e8565b82828151811061186e5761186d615066565b5b602002602001018181525050808061188590614e05565b915050611849565b508092505050919050565b6118a0612261565b80600e8190555050565b601680546118b790614585565b80601f01602080910402602001604051908101604052809291908181526020018280546118e390614585565b80156119305780601f1061190557610100808354040283529160200191611930565b820191906000526020600020905b81548152906001019060200180831161191357829003601f168201915b505050505081565b611940612261565b601260009054906101000a900460ff1615611990576040517f08c379a000000000000000000000000000000000000000000000000000000000815260040161198790614af0565b60405180910390fd5b600061199a610e97565b905060105482826119ab9190614c17565b11156119b657600080fd5b6000600190505b8281116119ed576119da846001846119d59190614c17565b6123eb565b80806119e590614e05565b9150506119bd565b50505050565b601a5481565b6000611a03610e97565b8210611a44576040517f08c379a0000000000000000000000000000000000000000000000000000000008152600401611a3b90615107565b60405180910390fd5b600a8281548110611a5857611a57615066565b5b90600052602060002001549050919050565b611a72612261565b8060179081611a8191906149d2565b5050565b601260009054906101000a900460ff1681565b6000806004600084815260200190815260200160002060009054906101000a900473ffffffffffffffffffffffffffffffffffffffff169050600073ffffffffffffffffffffffffffffffffffffffff168173ffffffffffffffffffffffffffffffffffffffff1603611b40576040517f08c379a0000000000000000000000000000000000000000000000000000000008152600401611b3790615173565b60405180910390fd5b80915050919050565b60178054611b5690614585565b80601f0160208091040260200160405190810160405280929190818152602001828054611b8290614585565b8015611bcf5780601f10611ba457610100808354040283529160200191611bcf565b820191906000526020600020905b815481529060010190602001808311611bb257829003601f168201915b505050505081565b60008073ffffffffffffffffffffffffffffffffffffffff168273ffffffffffffffffffffffffffffffffffffffff1603611c47576040517f08c379a0000000000000000000000000000000000000000000000000000000008152600401611c3e90615205565b60405180910390fd5b600560008373ffffffffffffffffffffffffffffffffffffffff1673ffffffffffffffffffffffffffffffffffffffff168152602001908152602001600020549050919050565b60188054611c9b90614585565b80601f0160208091040260200160405190810160405280929190818152602001828054611cc790614585565b8015611d145780601f10611ce957610100808354040283529160200191611d14565b820191906000526020600020905b815481529060010190602001808311611cf757829003601f168201915b505050505081565b611d24612261565b611d2e6000612754565b565b6000611d3f836019548461281a565b905092915050565b6000611d51612261565b6000601a5414611d96576040517f08c379a0000000000000000000000000000000000000000000000000000000008152600401611d8d90615271565b60405180910390fd5b600d60009054906101000a900473ffffffffffffffffffffffffffffffffffffffff1673ffffffffffffffffffffffffffffffffffffffff16635d3b1d30601d54601c60009054906101000a900467ffffffffffffffff166003620186a060016040518663ffffffff1660e01b8152600401611e1695949392919061536f565b6020604051808303816000875af1158015611e35573d6000803e3d6000fd5b505050506040513d601f19601f82011682018060405250810190611e5991906153d7565b905090565b6000600c60009054906101000a900473ffffffffffffffffffffffffffffffffffffffff16905090565b611e90612261565b611e9a8282612831565b5050565b606060038054611ead90614585565b80601f0160208091040260200160405190810160405280929190818152602001828054611ed990614585565b8015611f265780601f10611efb57610100808354040283529160200191611f26565b820191906000526020600020905b815481529060010190602001808311611f0957829003601f168201915b5050505050905090565b611f42611f3b61232a565b83836129c5565b5050565b611f57611f5161232a565b8361244f565b611f96576040517f08c379a0000000000000000000000000000000000000000000000000000000008152600401611f8d90614ee8565b60405180910390fd5b611fa284848484612b31565b50505050565b60135481565b60158054611fbb90614585565b80601f0160208091040260200160405190810160405280929190818152602001828054611fe790614585565b80156120345780601f1061200957610100808354040283529160200191612034565b820191906000526020600020905b81548152906001019060200180831161201757829003601f168201915b505050505081565b606061204782612b8d565b612086576040517f08c379a000000000000000000000000000000000000000000000000000000000815260040161207d90615476565b60405180910390fd5b6000612090612bf9565b905060008151116120b057604051806020016040528060008152506120db565b806120ba84612c8b565b6040516020016120cb929190615513565b6040516020818303038152906040525b915050919050565b60105481565b6000600760008473ffffffffffffffffffffffffffffffffffffffff1673ffffffffffffffffffffffffffffffffffffffff16815260200190815260200160002060008373ffffffffffffffffffffffffffffffffffffffff1673ffffffffffffffffffffffffffffffffffffffff16815260200190815260200160002060009054906101000a900460ff16905092915050565b612185612261565b80601c60006101000a81548167ffffffffffffffff021916908367ffffffffffffffff16021790555050565b60145481565b6121bf612261565b600073ffffffffffffffffffffffffffffffffffffffff168173ffffffffffffffffffffffffffffffffffffffff160361222e576040517f08c379a0000000000000000000000000000000000000000000000000000000008152600401612225906155b4565b60405180910390fd5b61223781612754565b50565b612242612261565b8060ff1660118190555050565b600061225a82612deb565b9050919050565b61226961232a565b73ffffffffffffffffffffffffffffffffffffffff16612287611e5e565b73ffffffffffffffffffffffffffffffffffffffff16146122dd576040517f08c379a00000000000000000000000000000000000000000000000000000000081526004016122d490615620565b60405180910390fd5b565b6122e881612b8d565b612327576040517f08c379a000000000000000000000000000000000000000000000000000000000815260040161231e90615173565b60405180910390fd5b50565b600033905090565b816006600083815260200190815260200160002060006101000a81548173ffffffffffffffffffffffffffffffffffffffff021916908373ffffffffffffffffffffffffffffffffffffffff160217905550808273ffffffffffffffffffffffffffffffffffffffff166123a583611a98565b73ffffffffffffffffffffffffffffffffffffffff167f8c5be1e5ebec7d5bd14f71427d1e84f3dd0314c0f7b2291e5b200ac8c7c3b92560405160405180910390a45050565b612405828260405180602001604052806000815250612e65565b5050565b6001611f408260008151811061242257612421615066565b5b60200260200101516124349190615640565b61243e9190614c17565b601a8190555081601b819055505050565b60008061245b83611a98565b90508073ffffffffffffffffffffffffffffffffffffffff168473ffffffffffffffffffffffffffffffffffffffff16148061249d575061249c81856120e9565b5b806124db57508373ffffffffffffffffffffffffffffffffffffffff166124c384610d22565b73ffffffffffffffffffffffffffffffffffffffff16145b91505092915050565b8273ffffffffffffffffffffffffffffffffffffffff1661250482611a98565b73ffffffffffffffffffffffffffffffffffffffff161461255a576040517f08c379a0000000000000000000000000000000000000000000000000000000008152600401612551906156e3565b60405180910390fd5b600073ffffffffffffffffffffffffffffffffffffffff168273ffffffffffffffffffffffffffffffffffffffff16036125c9576040517f08c379a00000000000000000000000000000000000000000000000000000000081526004016125c090615775565b60405180910390fd5b6125d4838383612ec0565b6125df600082612332565b6001600560008573ffffffffffffffffffffffffffffffffffffffff1673ffffffffffffffffffffffffffffffffffffffff168152602001908152602001600020600082825461262f9190614d65565b925050819055506001600560008473ffffffffffffffffffffffffffffffffffffffff1673ffffffffffffffffffffffffffffffffffffffff16815260200190815260200160002060008282546126869190614c17565b92505081905550816004600083815260200190815260200160002060006101000a81548173ffffffffffffffffffffffffffffffffffffffff021916908373ffffffffffffffffffffffffffffffffffffffff160217905550808273ffffffffffffffffffffffffffffffffffffffff168473ffffffffffffffffffffffffffffffffffffffff167fddf252ad1be2c89b69c2b068fc378daa952ba7f163c4a11628f55a4df523b3ef60405160405180910390a4612745838383612ed0565b505050565b6000612710905090565b6000600c60009054906101000a900473ffffffffffffffffffffffffffffffffffffffff16905081600c60006101000a81548173ffffffffffffffffffffffffffffffffffffffff021916908373ffffffffffffffffffffffffffffffffffffffff1602179055508173ffffffffffffffffffffffffffffffffffffffff168173ffffffffffffffffffffffffffffffffffffffff167f8be0079c531659141344cd1fd0a4f28419497f9722a3daafe3b4186f6b6457e060405160405180910390a35050565b6000826128278584612ed5565b1490509392505050565b61283961274a565b6bffffffffffffffffffffffff16816bffffffffffffffffffffffff161115612897576040517f08c379a000000000000000000000000000000000000000000000000000000000815260040161288e90615807565b60405180910390fd5b600073ffffffffffffffffffffffffffffffffffffffff168273ffffffffffffffffffffffffffffffffffffffff1603612906576040517f08c379a00000000000000000000000000000000000000000000000000000000081526004016128fd90615873565b60405180910390fd5b60405180604001604052808373ffffffffffffffffffffffffffffffffffffffff168152602001826bffffffffffffffffffffffff168152506000808201518160000160006101000a81548173ffffffffffffffffffffffffffffffffffffffff021916908373ffffffffffffffffffffffffffffffffffffffff16021790555060208201518160000160146101000a8154816bffffffffffffffffffffffff02191690836bffffffffffffffffffffffff1602179055509050505050565b8173ffffffffffffffffffffffffffffffffffffffff168373ffffffffffffffffffffffffffffffffffffffff1603612a33576040517f08c379a0000000000000000000000000000000000000000000000000000000008152600401612a2a906158df565b60405180910390fd5b80600760008573ffffffffffffffffffffffffffffffffffffffff1673ffffffffffffffffffffffffffffffffffffffff16815260200190815260200160002060008473ffffffffffffffffffffffffffffffffffffffff1673ffffffffffffffffffffffffffffffffffffffff16815260200190815260200160002060006101000a81548160ff0219169083151502179055508173ffffffffffffffffffffffffffffffffffffffff168373ffffffffffffffffffffffffffffffffffffffff167f17307eab39ab6107e8899845ad3d59bd9653f200f220920489ca2b5937696c3183604051612b2491906139bb565b60405180910390a3505050565b612b3c8484846124e4565b612b4884848484612f2b565b612b87576040517f08c379a0000000000000000000000000000000000000000000000000000000008152600401612b7e90615971565b60405180910390fd5b50505050565b60008073ffffffffffffffffffffffffffffffffffffffff166004600084815260200190815260200160002060009054906101000a900473ffffffffffffffffffffffffffffffffffffffff1673ffffffffffffffffffffffffffffffffffffffff1614159050919050565b606060178054612c0890614585565b80601f0160208091040260200160405190810160405280929190818152602001828054612c3490614585565b8015612c815780601f10612c5657610100808354040283529160200191612c81565b820191906000526020600020905b815481529060010190602001808311612c6457829003601f168201915b5050505050905090565b606060008203612cd2576040518060400160405280600181526020017f30000000000000000000000000000000000000000000000000000000000000008152509050612de6565b600082905060005b60008214612d04578080612ced90614e05565b915050600a82612cfd9190614f37565b9150612cda565b60008167ffffffffffffffff811115612d2057612d1f613c0c565b5b6040519080825280601f01601f191660200182016040528015612d525781602001600182028036833780820191505090505b5090505b60008514612ddf57600182612d6b9190614d65565b9150600a85612d7a9190615640565b6030612d869190614c17565b60f81b818381518110612d9c57612d9b615066565b5b60200101907effffffffffffffffffffffffffffffffffffffffffffffffffffffffffffff1916908160001a905350600a85612dd89190614f37565b9450612d56565b8093505050505b919050565b60007f780e9d63000000000000000000000000000000000000000000000000000000007bffffffffffffffffffffffffffffffffffffffffffffffffffffffff1916827bffffffffffffffffffffffffffffffffffffffffffffffffffffffff19161480612e5e5750612e5d826130b2565b5b9050919050565b612e6f8383613194565b612e7c6000848484612f2b565b612ebb576040517f08c379a0000000000000000000000000000000000000000000000000000000008152600401612eb290615971565b60405180910390fd5b505050565b612ecb83838361336d565b505050565b505050565b60008082905060005b8451811015612f2057612f0b82868381518110612efe57612efd615066565b5b602002602001015161347f565b91508080612f1890614e05565b915050612ede565b508091505092915050565b6000612f4c8473ffffffffffffffffffffffffffffffffffffffff166134aa565b156130a5578373ffffffffffffffffffffffffffffffffffffffff1663150b7a02612f7561232a565b8786866040518563ffffffff1660e01b8152600401612f9794939291906159e6565b6020604051808303816000875af1925050508015612fd357506040513d601f19601f82011682018060405250810190612fd09190615a47565b60015b613055573d8060008114613003576040519150601f19603f3d011682016040523d82523d6000602084013e613008565b606091505b50600081510361304d576040517f08c379a000000000000000000000000000000000000000000000000000000000815260040161304490615971565b60405180910390fd5b805181602001fd5b63150b7a0260e01b7bffffffffffffffffffffffffffffffffffffffffffffffffffffffff1916817bffffffffffffffffffffffffffffffffffffffffffffffffffffffff1916149150506130aa565b600190505b949350505050565b60007f80ac58cd000000000000000000000000000000000000000000000000000000007bffffffffffffffffffffffffffffffffffffffffffffffffffffffff1916827bffffffffffffffffffffffffffffffffffffffffffffffffffffffff1916148061317d57507f5b5e139f000000000000000000000000000000000000000000000000000000007bffffffffffffffffffffffffffffffffffffffffffffffffffffffff1916827bffffffffffffffffffffffffffffffffffffffffffffffffffffffff1916145b8061318d575061318c826134cd565b5b9050919050565b600073ffffffffffffffffffffffffffffffffffffffff168273ffffffffffffffffffffffffffffffffffffffff1603613203576040517f08c379a00000000000000000000000000000000000000000000000000000000081526004016131fa90615ac0565b60405180910390fd5b61320c81612b8d565b1561324c576040517f08c379a000000000000000000000000000000000000000000000000000000000815260040161324390615b2c565b60405180910390fd5b61325860008383612ec0565b6001600560008473ffffffffffffffffffffffffffffffffffffffff1673ffffffffffffffffffffffffffffffffffffffff16815260200190815260200160002060008282546132a89190614c17565b92505081905550816004600083815260200190815260200160002060006101000a81548173ffffffffffffffffffffffffffffffffffffffff021916908373ffffffffffffffffffffffffffffffffffffffff160217905550808273ffffffffffffffffffffffffffffffffffffffff16600073ffffffffffffffffffffffffffffffffffffffff167fddf252ad1be2c89b69c2b068fc378daa952ba7f163c4a11628f55a4df523b3ef60405160405180910390a461336960008383612ed0565b5050565b613378838383613547565b600073ffffffffffffffffffffffffffffffffffffffff168373ffffffffffffffffffffffffffffffffffffffff16036133ba576133b58161354c565b6133f9565b8173ffffffffffffffffffffffffffffffffffffffff168373ffffffffffffffffffffffffffffffffffffffff16146133f8576133f78382613595565b5b5b600073ffffffffffffffffffffffffffffffffffffffff168273ffffffffffffffffffffffffffffffffffffffff160361343b5761343681613702565b61347a565b8273ffffffffffffffffffffffffffffffffffffffff168273ffffffffffffffffffffffffffffffffffffffff16146134795761347882826137d3565b5b5b505050565b6000818310613497576134928284613852565b6134a2565b6134a18383613852565b5b905092915050565b6000808273ffffffffffffffffffffffffffffffffffffffff163b119050919050565b60007f2a55205a000000000000000000000000000000000000000000000000000000007bffffffffffffffffffffffffffffffffffffffffffffffffffffffff1916827bffffffffffffffffffffffffffffffffffffffffffffffffffffffff19161480613540575061353f82613869565b5b9050919050565b505050565b600a80549050600b600083815260200190815260200160002081905550600a81908060018154018082558091505060019003906000526020600020016000909190919091505550565b600060016135a284611bd7565b6135ac9190614d65565b9050600060096000848152602001908152602001600020549050818114613691576000600860008673ffffffffffffffffffffffffffffffffffffffff1673ffffffffffffffffffffffffffffffffffffffff168152602001908152602001600020600084815260200190815260200160002054905080600860008773ffffffffffffffffffffffffffffffffffffffff1673ffffffffffffffffffffffffffffffffffffffff168152602001908152602001600020600084815260200190815260200160002081905550816009600083815260200190815260200160002081905550505b6009600084815260200190815260200160002060009055600860008573ffffffffffffffffffffffffffffffffffffffff1673ffffffffffffffffffffffffffffffffffffffff16815260200190815260200160002060008381526020019081526020016000206000905550505050565b60006001600a805490506137169190614d65565b90506000600b60008481526020019081526020016000205490506000600a838154811061374657613745615066565b5b9060005260206000200154905080600a838154811061376857613767615066565b5b906000526020600020018190555081600b600083815260200190815260200160002081905550600b600085815260200190815260200160002060009055600a8054806137b7576137b6615b4c565b5b6001900381819060005260206000200160009055905550505050565b60006137de83611bd7565b905081600860008573ffffffffffffffffffffffffffffffffffffffff1673ffffffffffffffffffffffffffffffffffffffff168152602001908152602001600020600083815260200190815260200160002081905550806009600084815260200190815260200160002081905550505050565b600082600052816020526040600020905092915050565b60007f01ffc9a7000000000000000000000000000000000000000000000000000000007bffffffffffffffffffffffffffffffffffffffffffffffffffffffff1916827bffffffffffffffffffffffffffffffffffffffffffffffffffffffff1916149050919050565b6000819050919050565b6138e6816138d3565b82525050565b600060208201905061390160008301846138dd565b92915050565b6000604051905090565b600080fd5b600080fd5b60007fffffffff0000000000000000000000000000000000000000000000000000000082169050919050565b6139508161391b565b811461395b57600080fd5b50565b60008135905061396d81613947565b92915050565b60006020828403121561398957613988613911565b5b60006139978482850161395e565b91505092915050565b60008115159050919050565b6139b5816139a0565b82525050565b60006020820190506139d060008301846139ac565b92915050565b6139df816139a0565b81146139ea57600080fd5b50565b6000813590506139fc816139d6565b92915050565b600060208284031215613a1857613a17613911565b5b6000613a26848285016139ed565b91505092915050565b600081519050919050565b600082825260208201905092915050565b60005b83811015613a69578082015181840152602081019050613a4e565b60008484015250505050565b6000601f19601f8301169050919050565b6000613a9182613a2f565b613a9b8185613a3a565b9350613aab818560208601613a4b565b613ab481613a75565b840191505092915050565b60006020820190508181036000830152613ad98184613a86565b905092915050565b613aea816138d3565b8114613af557600080fd5b50565b600081359050613b0781613ae1565b92915050565b600060208284031215613b2357613b22613911565b5b6000613b3184828501613af8565b91505092915050565b600073ffffffffffffffffffffffffffffffffffffffff82169050919050565b6000613b6582613b3a565b9050919050565b613b7581613b5a565b82525050565b6000602082019050613b906000830184613b6c565b92915050565b613b9f81613b5a565b8114613baa57600080fd5b50565b600081359050613bbc81613b96565b92915050565b60008060408385031215613bd957613bd8613911565b5b6000613be785828601613bad565b9250506020613bf885828601613af8565b9150509250929050565b600080fd5b600080fd5b7f4e487b7100000000000000000000000000000000000000000000000000000000600052604160045260246000fd5b613c4482613a75565b810181811067ffffffffffffffff82111715613c6357613c62613c0c565b5b80604052505050565b6000613c76613907565b9050613c828282613c3b565b919050565b600067ffffffffffffffff821115613ca257613ca1613c0c565b5b613cab82613a75565b9050602081019050919050565b82818337600083830152505050565b6000613cda613cd584613c87565b613c6c565b905082815260208101848484011115613cf657613cf5613c07565b5b613d01848285613cb8565b509392505050565b600082601f830112613d1e57613d1d613c02565b5b8135613d2e848260208601613cc7565b91505092915050565b600060208284031215613d4d57613d4c613911565b5b600082013567ffffffffffffffff811115613d6b57613d6a613916565b5b613d7784828501613d09565b91505092915050565b600067ffffffffffffffff821115613d9b57613d9a613c0c565b5b602082029050602081019050919050565b600080fd5b6000819050919050565b613dc481613db1565b8114613dcf57600080fd5b50565b600081359050613de181613dbb565b92915050565b6000613dfa613df584613d80565b613c6c565b90508083825260208201905060208402830185811115613e1d57613e1c613dac565b5b835b81811015613e465780613e328882613dd2565b845260208401935050602081019050613e1f565b5050509392505050565b600082601f830112613e6557613e64613c02565b5b8135613e75848260208601613de7565b91505092915050565b600080600060608486031215613e9757613e96613911565b5b600084013567ffffffffffffffff811115613eb557613eb4613916565b5b613ec186828701613e50565b9350506020613ed286828701613dd2565b9250506040613ee386828701613af8565b9150509250925092565b600067ffffffffffffffff821115613f0857613f07613c0c565b5b602082029050602081019050919050565b6000613f2c613f2784613eed565b613c6c565b90508083825260208201905060208402830185811115613f4f57613f4e613dac565b5b835b81811015613f785780613f648882613af8565b845260208401935050602081019050613f51565b5050509392505050565b600082601f830112613f9757613f96613c02565b5b8135613fa7848260208601613f19565b91505092915050565b60008060408385031215613fc757613fc6613911565b5b6000613fd585828601613af8565b925050602083013567ffffffffffffffff811115613ff657613ff5613916565b5b61400285828601613f82565b9150509250929050565b60008060006060848603121561402557614024613911565b5b600061403386828701613bad565b935050602061404486828701613bad565b925050604061405586828701613af8565b9150509250925092565b6000806040838503121561407657614075613911565b5b600061408485828601613af8565b925050602061409585828601613af8565b9150509250929050565b60006040820190506140b46000830185613b6c565b6140c160208301846138dd565b9392505050565b6140d181613db1565b82525050565b60006020820190506140ec60008301846140c8565b92915050565b60006020828403121561410857614107613911565b5b600061411684828501613bad565b91505092915050565b600081519050919050565b600082825260208201905092915050565b6000819050602082019050919050565b614154816138d3565b82525050565b6000614166838361414b565b60208301905092915050565b6000602082019050919050565b600061418a8261411f565b614194818561412a565b935061419f8361413b565b8060005b838110156141d05781516141b7888261415a565b97506141c283614172565b9250506001810190506141a3565b5085935050505092915050565b600060208201905081810360008301526141f7818461417f565b905092915050565b6000806040838503121561421657614215613911565b5b600083013567ffffffffffffffff81111561423457614233613916565b5b61424085828601613e50565b925050602061425185828601613dd2565b9150509250929050565b60006bffffffffffffffffffffffff82169050919050565b61427c8161425b565b811461428757600080fd5b50565b60008135905061429981614273565b92915050565b600080604083850312156142b6576142b5613911565b5b60006142c485828601613bad565b92505060206142d58582860161428a565b9150509250929050565b600080604083850312156142f6576142f5613911565b5b600061430485828601613bad565b9250506020614315858286016139ed565b9150509250929050565b600067ffffffffffffffff82111561433a57614339613c0c565b5b61434382613a75565b9050602081019050919050565b600061436361435e8461431f565b613c6c565b90508281526020810184848401111561437f5761437e613c07565b5b61438a848285613cb8565b509392505050565b600082601f8301126143a7576143a6613c02565b5b81356143b7848260208601614350565b91505092915050565b600080600080608085870312156143da576143d9613911565b5b60006143e887828801613bad565b94505060206143f987828801613bad565b935050604061440a87828801613af8565b925050606085013567ffffffffffffffff81111561442b5761442a613916565b5b61443787828801614392565b91505092959194509250565b6000806040838503121561445a57614459613911565b5b600061446885828601613bad565b925050602061447985828601613bad565b9150509250929050565b600067ffffffffffffffff82169050919050565b6144a081614483565b81146144ab57600080fd5b50565b6000813590506144bd81614497565b92915050565b6000602082840312156144d9576144d8613911565b5b60006144e7848285016144ae565b91505092915050565b600060ff82169050919050565b614506816144f0565b811461451157600080fd5b50565b600081359050614523816144fd565b92915050565b60006020828403121561453f5761453e613911565b5b600061454d84828501614514565b91505092915050565b7f4e487b7100000000000000000000000000000000000000000000000000000000600052602260045260246000fd5b6000600282049050600182168061459d57607f821691505b6020821081036145b0576145af614556565b5b50919050565b7f4552433732313a20617070726f76616c20746f2063757272656e74206f776e6560008201527f7200000000000000000000000000000000000000000000000000000000000000602082015250565b6000614612602183613a3a565b915061461d826145b6565b604082019050919050565b6000602082019050818103600083015261464181614605565b9050919050565b7f4552433732313a20617070726f76652063616c6c6572206973206e6f7420746f60008201527f6b656e206f776e6572206e6f7220617070726f76656420666f7220616c6c0000602082015250565b60006146a4603e83613a3a565b91506146af82614648565b604082019050919050565b600060208201905081810360008301526146d381614697565b9050919050565b600081905092915050565b50565b60006146f56000836146da565b9150614700826146e5565b600082019050919050565b6000614716826146e8565b9150819050919050565b60008190508160005260206000209050919050565b6000815461474281614585565b61474c81866146da565b94506001821660008114614767576001811461477c576147af565b60ff19831686528115158202860193506147af565b61478585614720565b60005b838110156147a757815481890152600182019150602081019050614788565b838801955050505b50505092915050565b60006147c48284614735565b915081905092915050565b7f4861736820616c72656164792073657474656400000000000000000000000000600082015250565b6000614805601383613a3a565b9150614810826147cf565b602082019050919050565b60006020820190508181036000830152614834816147f8565b9050919050565b60006020601f8301049050919050565b600082821b905092915050565b6000600883026148887fffffffffffffffffffffffffffffffffffffffffffffffffffffffffffffffff8261484b565b614892868361484b565b95508019841693508086168417925050509392505050565b6000819050919050565b60006148cf6148ca6148c5846138d3565b6148aa565b6138d3565b9050919050565b6000819050919050565b6148e9836148b4565b6148fd6148f5826148d6565b848454614858565b825550505050565b600090565b614912614905565b61491d8184846148e0565b505050565b5b818110156149415761493660008261490a565b600181019050614923565b5050565b601f8211156149865761495781614720565b6149608461483b565b8101602085101561496f578190505b61498361497b8561483b565b830182614922565b50505b505050565b600082821c905092915050565b60006149a96000198460080261498b565b1980831691505092915050565b60006149c28383614998565b9150826002028217905092915050565b6149db82613a2f565b67ffffffffffffffff8111156149f4576149f3613c0c565b5b6149fe8254614585565b614a09828285614945565b600060209050601f831160018114614a3c5760008415614a2a578287015190505b614a3485826149b6565b865550614a9c565b601f198416614a4a86614720565b60005b82811015614a7257848901518255600182019150602085019450602081019050614a4d565b86831015614a8f5784890151614a8b601f891682614998565b8355505b6001600288020188555050505b505050505050565b7f436f6e747261637420696e2070617573652e2e00000000000000000000000000600082015250565b6000614ada601383613a3a565b9150614ae582614aa4565b602082019050919050565b60006020820190508181036000830152614b0981614acd565b9050919050565b7f41646472657373206e6f742077686974656c6973746564000000000000000000600082015250565b6000614b46601783613a3a565b9150614b5182614b10565b602082019050919050565b60006020820190508181036000830152614b7581614b39565b9050919050565b7f57686974656c697374206d696e742069736e2774206f70656e65640000000000600082015250565b6000614bb2601b83613a3a565b9150614bbd82614b7c565b602082019050919050565b60006020820190508181036000830152614be181614ba5565b9050919050565b7f4e487b7100000000000000000000000000000000000000000000000000000000600052601160045260246000fd5b6000614c22826138d3565b9150614c2d836138d3565b9250828201905080821115614c4557614c44614be8565b5b92915050565b7f4e6f20656e6f75676820737570706c7900000000000000000000000000000000600082015250565b6000614c81601083613a3a565b9150614c8c82614c4b565b602082019050919050565b60006020820190508181036000830152614cb081614c74565b9050919050565b7f4d696e74206c696d697420726561636865640000000000000000000000000000600082015250565b6000614ced601283613a3a565b9150614cf882614cb7565b602082019050919050565b60006020820190508181036000830152614d1c81614ce0565b9050919050565b6000614d2e826138d3565b9150614d39836138d3565b9250828202614d47816138d3565b91508282048414831517614d5e57614d5d614be8565b5b5092915050565b6000614d70826138d3565b9150614d7b836138d3565b9250828203905081811115614d9357614d92614be8565b5b92915050565b7f496e76616c696420616d6f756e74206f66206574680000000000000000000000600082015250565b6000614dcf601583613a3a565b9150614dda82614d99565b602082019050919050565b60006020820190508181036000830152614dfe81614dc2565b9050919050565b6000614e10826138d3565b91507fffffffffffffffffffffffffffffffffffffffffffffffffffffffffffffffff8203614e4257614e41614be8565b5b600182019050919050565b6000604082019050614e626000830185613b6c565b614e6f6020830184613b6c565b9392505050565b7f4552433732313a2063616c6c6572206973206e6f7420746f6b656e206f776e6560008201527f72206e6f7220617070726f766564000000000000000000000000000000000000602082015250565b6000614ed2602e83613a3a565b9150614edd82614e76565b604082019050919050565b60006020820190508181036000830152614f0181614ec5565b9050919050565b7f4e487b7100000000000000000000000000000000000000000000000000000000600052601260045260246000fd5b6000614f42826138d3565b9150614f4d836138d3565b925082614f5d57614f5c614f08565b5b828204905092915050565b7f455243373231456e756d657261626c653a206f776e657220696e646578206f7560008201527f74206f6620626f756e6473000000000000000000000000000000000000000000602082015250565b6000614fc4602b83613a3a565b9150614fcf82614f68565b604082019050919050565b60006020820190508181036000830152614ff381614fb7565b9050919050565b7f4d696e742069736e2774206f70656e6564000000000000000000000000000000600082015250565b6000615030601183613a3a565b915061503b82614ffa565b602082019050919050565b6000602082019050818103600083015261505f81615023565b9050919050565b7f4e487b7100000000000000000000000000000000000000000000000000000000600052603260045260246000fd5b7f455243373231456e756d657261626c653a20676c6f62616c20696e646578206f60008201527f7574206f6620626f756e64730000000000000000000000000000000000000000602082015250565b60006150f1602c83613a3a565b91506150fc82615095565b604082019050919050565b60006020820190508181036000830152615120816150e4565b9050919050565b7f4552433732313a20696e76616c696420746f6b656e2049440000000000000000600082015250565b600061515d601883613a3a565b915061516882615127565b602082019050919050565b6000602082019050818103600083015261518c81615150565b9050919050565b7f4552433732313a2061646472657373207a65726f206973206e6f74206120766160008201527f6c6964206f776e65720000000000000000000000000000000000000000000000602082015250565b60006151ef602983613a3a565b91506151fa82615193565b604082019050919050565b6000602082019050818103600083015261521e816151e2565b9050919050565b7f746f6b656e47617020616c726561647920646566696e65640000000000000000600082015250565b600061525b601883613a3a565b915061526682615225565b602082019050919050565b6000602082019050818103600083015261528a8161524e565b9050919050565b61529a81614483565b82525050565b6000819050919050565b600061ffff82169050919050565b60006152d36152ce6152c9846152a0565b6148aa565b6152aa565b9050919050565b6152e3816152b8565b82525050565b6000819050919050565b600063ffffffff82169050919050565b600061531e615319615314846152e9565b6148aa565b6152f3565b9050919050565b61532e81615303565b82525050565b6000819050919050565b600061535961535461534f84615334565b6148aa565b6152f3565b9050919050565b6153698161533e565b82525050565b600060a08201905061538460008301886140c8565b6153916020830187615291565b61539e60408301866152da565b6153ab6060830185615325565b6153b86080830184615360565b9695505050505050565b6000815190506153d181613ae1565b92915050565b6000602082840312156153ed576153ec613911565b5b60006153fb848285016153c2565b91505092915050565b7f4552433732314d657461646174613a2055524920717565727920666f72206e6f60008201527f6e6578697374656e7420746f6b656e0000000000000000000000000000000000602082015250565b6000615460602f83613a3a565b915061546b82615404565b604082019050919050565b6000602082019050818103600083015261548f81615453565b9050919050565b60006154a182613a2f565b6154ab81856146da565b93506154bb818560208601613a4b565b80840191505092915050565b7f2e6a736f6e000000000000000000000000000000000000000000000000000000600082015250565b60006154fd6005836146da565b9150615508826154c7565b600582019050919050565b600061551f8285615496565b915061552b8284615496565b9150615536826154f0565b91508190509392505050565b7f4f776e61626c653a206e6577206f776e657220697320746865207a65726f206160008201527f6464726573730000000000000000000000000000000000000000000000000000602082015250565b600061559e602683613a3a565b91506155a982615542565b604082019050919050565b600060208201905081810360008301526155cd81615591565b9050919050565b7f4f776e61626c653a2063616c6c6572206973206e6f7420746865206f776e6572600082015250565b600061560a602083613a3a565b9150615615826155d4565b602082019050919050565b60006020820190508181036000830152615639816155fd565b9050919050565b600061564b826138d3565b9150615656836138d3565b92508261566657615665614f08565b5b828206905092915050565b7f4552433732313a207472616e736665722066726f6d20696e636f72726563742060008201527f6f776e6572000000000000000000000000000000000000000000000000000000602082015250565b60006156cd602583613a3a565b91506156d882615671565b604082019050919050565b600060208201905081810360008301526156fc816156c0565b9050919050565b7f4552433732313a207472616e7366657220746f20746865207a65726f2061646460008201527f7265737300000000000000000000000000000000000000000000000000000000602082015250565b600061575f602483613a3a565b915061576a82615703565b604082019050919050565b6000602082019050818103600083015261578e81615752565b9050919050565b7f455243323938313a20726f79616c7479206665652077696c6c2065786365656460008201527f2073616c65507269636500000000000000000000000000000000000000000000602082015250565b60006157f1602a83613a3a565b91506157fc82615795565b604082019050919050565b60006020820190508181036000830152615820816157e4565b9050919050565b7f455243323938313a20696e76616c696420726563656976657200000000000000600082015250565b600061585d601983613a3a565b915061586882615827565b602082019050919050565b6000602082019050818103600083015261588c81615850565b9050919050565b7f4552433732313a20617070726f766520746f2063616c6c657200000000000000600082015250565b60006158c9601983613a3a565b91506158d482615893565b602082019050919050565b600060208201905081810360008301526158f8816158bc565b9050919050565b7f4552433732313a207472616e7366657220746f206e6f6e20455243373231526560008201527f63656976657220696d706c656d656e7465720000000000000000000000000000602082015250565b600061595b603283613a3a565b9150615966826158ff565b604082019050919050565b6000602082019050818103600083015261598a8161594e565b9050919050565b600081519050919050565b600082825260208201905092915050565b60006159b882615991565b6159c2818561599c565b93506159d2818560208601613a4b565b6159db81613a75565b840191505092915050565b60006080820190506159fb6000830187613b6c565b615a086020830186613b6c565b615a1560408301856138dd565b8181036060830152615a2781846159ad565b905095945050505050565b600081519050615a4181613947565b92915050565b600060208284031215615a5d57615a5c613911565b5b6000615a6b84828501615a32565b91505092915050565b7f4552433732313a206d696e7420746f20746865207a65726f2061646472657373600082015250565b6000615aaa602083613a3a565b9150615ab582615a74565b602082019050919050565b60006020820190508181036000830152615ad981615a9d565b9050919050565b7f4552433732313a20746f6b656e20616c7265616479206d696e74656400000000600082015250565b6000615b16601c83613a3a565b9150615b2182615ae0565b602082019050919050565b60006020820190508181036000830152615b4581615b09565b9050919050565b7f4e487b7100000000000000000000000000000000000000000000000000000000600052603160045260246000fdfea26469706673582212200b208972c81905f101b30072d68b32d8b4ab4d68acc7d7a3ce07d2f1f5f093a464736f6c63430008110033",
  "linkReferences": {},
  "deployedLinkReferences": {}
}